:0400030002080000EF
:0E00F7004389018F8C8D8AD2AFD2A9D28C2280
:0F00E8007580FFD2A6C2A6E4F580D2A7C2A722D8
:1000B900120105E4FDFC7F4CFE1200F7E509640A14
:0C00C900450870F8B294F508F50980F0C5
:03000B000200D51B
:1000D500C0E0758C4C758A000509E50970020508B4
:0300E500D0E03236
:09010500D2A3C2A5D2A6C2A72212
:10009A00C3EE6480948040167D707C00ED1D700173
:0E00AA001CBCFFF8BDFFF5EF1F70E51E80E2E5
:0100B8002225
:0300000002000EED
:0C000E00787FE4F6D8FD758109020055EA
:10001A000200B9E493A3F8E493A34003F68001F243
:10002A0008DFF48029E493A3F85407240CC8C333E7
:10003A00C4540F4420C8834004F456800146F6DFB6
:10004A00E4800B0102040810204080900003E47E43
:10005A00019360BCA3FF543F30E509541FFEE493AB
:10006A00A360010ECF54C025E060A840B8E493A372
:10007A00FAE493A3F8E493A3C8C582C8CAC583CA9D
:10008A00F0A3C8C582C8CAC583CADFE9DEE780BE55
:0100070000F8
:00000001FF
