:10010200023A0000202208003F0006005B004F0078
:1001120066006D007D0007007F006F0077007C00A5
:1001220039005E007900710000102A00FE00FD0017
:0B013200FB00F700EF00DF00BF007FC4
:04019E007C007E0063
:1001A200EF25E02408F808E6F580D2A6C2A6ED25E0
:0D01B200E0242AF808E6F580D2A7C2A722B3
:10008F00E4FDFC7F01FE1201A21201BF7D017F0280
:10009F0012019E1F1201BF7D027F0312019E7F017D
:1000AF001201BF7D037C007F047E001201A27F013D
:1000BF001201BF7D047C007F057E001201A27F012B
:1000CF001201BF7D057C007F067E001201A27F0119
:1000DF001201BF7D067C007F077E001201A27F0107
:1000EF001201BF7D077C007F087E001201A27F01F5
:0300FF000201BF3C
:10013E00E4F53AF53BE53B2401FFE4353AFEAD3BF1
:10014E00AC3A1201A27FF47E011201BF053BE53BE2
:10015E007002053AC39408E53A6480948040D62232
:10016E00E4F53AF53BE53B2401FFE4353AFEAD3BC1
:10017E00AC3A1201A27580FFD2A7C2A7053BE53BA0
:10018E007002053AC39408E53A6480948040D62202
:0601E7001201DE02013EE0
:0901DE00D2A3C2A5D2A6C2A72239
:1001BF00C3EE6480948040167D707C00ED1D70014D
:0E01CF001CBCFFF8BDFFF5EF1F70E51E80E2BF
:0101DD0022FF
:03000000020003F8
:0C000300787FE4F6D8FD75813B02004ACE
:10000F000201E7E493A3F8E493A34003F68001F21F
:10001F0008DFF48029E493A3F85407240CC8C333F2
:10002F00C4540F4420C8834004F456800146F6DFC1
:10003F00E4800B0102040810204080900102E47E4E
:10004F00019360BCA3FF543F30E509541FFEE493B6
:10005F00A360010ECF54C025E060A840B8E493A37D
:10006F00FAE493A3F8E493A3C8C582C8CAC583CAA8
:10007F00F0A3C8C582C8CAC583CADFE9DEE780BE60
:01013D0000C1
:00000001FF
