:1002ED0018083F065B4F666D7D077F6F777C395E23
:0A02FD0079717638373E735C4000DB
:0402D200AF23AE2286
:1002D60074082FF8E6F580D2A6C2A6C2A37F3C7E9C
:0702E600001202B3D2A322B3
:1000030075B0FEAFB07520008F215321F07520002D
:10001300E52164F0452060707F0A7E001202B3AFD1
:10002300B07520008F215321F0752000E52164F085
:1000330045206054AFB07520008F21E520702FE577
:10004300212482602324C0601724E0600B24F07015
:100053001DE4F522F5238016752200752301800E19
:100063007522007523028006752200752303E5219E
:1000730064F04520600FAFB07520008F215321F04D
:1000830075200080E91202D275B0FDAFB075200073
:100093008F215321F0752000E52164F04520607124
:1000A3007F0A7E001202B3AFB07520008F21532167
:1000B300F0752000E52164F045206055AFB0752050
:1000C300008F21E5207030E5212483602424C06063
:1000D3001824E0600C24F0701E7522007523048040
:1000E30016752200752305800E7522007523068080
:1000F30006752200752307E52164F04520600FAFE4
:10010300B07520008F215321F075200080E9120281
:10011300D275B0FBAFB07520008F215321F075204D
:1001230000E52164F0452060717F0A7E001202B36E
:10013300AFB07520008F215321F0752000E52164B5
:10014300F045206055AFB07520008F21E520703059
:10015300E5212485602424C0601824E0600C24F089
:10016300701E7522007523088016752200752309F9
:10017300800E75220075230A800675220075230BF5
:10018300E52164F04520600FAFB07520008F215347
:1001930021F075200080E91202D275B0F7AFB07577
:1001A30020008F215321F0752000E52164F04520C4
:1001B30060717F0A7E001202B3AFB07520008F21F9
:1001C3005321F0752000E52164F045206055AFB060
:1001D3007520008F21E5207030E5212489602424D7
:1001E300C0601824E0600C24F0701E752200752393
:1001F3000C801675220075230D800E752200752361
:100203000E800675220075230FE52164F0452060FA
:100213000FAFB07520008F215321F075200080E9C6
:030223001202D2F2
:0102260022B5
:0F030800120317E4F580D2A7C2A712000380FBEF
:09031700D2A3C2A5D2A6C2A722FE
:1002B300C3EE6480948040167D707C00ED1D700158
:0E02C3001CBCFFF8BDFFF5EF1F70E51E80E2CA
:0102D100220A
:03000000020227D2
:0C022700787FE4F6D8FD75812302026E9A
:10023300020308E493A3F8E493A34003F68001F2D6
:1002430008DFF48029E493A3F85407240CC8C333CC
:10025300C4540F4420C8834004F456800146F6DF9B
:10026300E4800B01020408102040809002EDE47E3C
:10027300019360BCA3FF543F30E509541FFEE49390
:10028300A360010ECF54C025E060A840B8E493A357
:10029300FAE493A3F8E493A3C8C582C8CAC583CA82
:1002A300F0A3C8C582C8CAC583CADFE9DEE780BE3A
:0103070000F5
:00000001FF
