:04003D007F647E005E
:10004100C3EE6480948040167D707C00ED1D7001CC
:0E0051001CBCFFF8BDFFF5EF1F70E51E80E23E
:01005F00227E
:10000300C29012003DD290C29112003DD291C29291
:1000130012003DD292C29312003DD293C2941200B9
:100023003DD294C29512003DD295C29612003DD2A4
:0A00330096C29712003DD29780C6D6
:100060007590FEE4FAFB12003DE59025E0F5904323
:0F00700090010BBB00010AEB64084A70E980E1C4
:10007F007590FE12003DAF907801EF08800123D8F4
:05008F00FDF59080EE7C
:0700A00012007FE4FEFF22C5
:0300000002009467
:0C009400787FE4F6D8FD7581070200A01B
:00000001FF
