:100089005A68616E6720486F754A696E0048656CE9
:0A0099006C6F20576F726C64210039
:08012000E4F580D2A0C2A02288
:03012800DFFE22D5
:1000D400AE07AF061EEF600C7FF51201287FF51204
:0500E400012880EE225E
:1000FA007580FFC290D291C2A500D2A5E5803322B5
:0C006C007F381200787F051200D47F3826
:100078001200FA40FBC290C291D2A58F8000C2A59F
:010088002255
:1000E9001200FA40FBD290C291D2A58F8000C2A51E
:0100F90022E4
:0A0116007F011200787F050200D47B
:10000300AE07ED7005EE24808003EE24C0FF1200DE
:10001300781200A3FF600C1200E9740129F9E43A95
:04002300FA80EE224F
:1000BC00AE07AC03ED7005EE24808003EE24C0FF88
:0800CC00120078AF040200E904
:1000270012006C7F051200D412006C7F0812007852
:100037007F011200787F061200781F1200D47F0C10
:030047000200783C
:10004A001201201200271201167BFF7A007989E437
:10005A00FD7F021200037A0079960D7F02120003D7
:02006A0080FE16
:0300000002010AF0
:0C010A00787FE4F6D8FD75810702004AFA
:1000A300BB010689828A83E0225002E722BBFE025B
:0900B300E32289828A83E493228E
:00000001FF
