:1004CE003F065B4F666D7D077F6F777C395E797176
:0A04DE00BF86DBCFE6EDFD87FFEFE0
:08047100D2A7C2A77F017E00A3
:10047900EF4E60147DC87C00ED1D70011CED4C70C1
:08048900F7EF1F70EB1E80E885
:010491002248
:10049200C2A27F677E00EF1F70011EEF4E70F7D27F
:0E04A200A27E007F04EF1F70011EEF4E70F768
:0104B0002229
:10044D00C2A20FBF0000D2A20FBF00000FBF00005D
:10045D00A2A292007E007F08EF1F70011EEF4E706A
:03046D00F7A200F3
:010470002269
:1004B100E4FD7C0112044DE433FFC4333333548033
:0C04C100FEEDC3134EFD0CBC09EAAF05B4
:0104CD00220C
:100405007E01EF139200EFC313FF30001BC2A20B56
:10041500BB00000BBB0000D2A27A007B08EB1B706F
:10042500011AEB4A70F7801BC2A27A007B08EB1B0E
:1004350070011AEB4A70F7D2A20BBB00010A0BBB85
:0704450000010A0EBE09BB15
:01044C00228D
:1004FF001204921204757FCC1204057F4402040586
:10039F001204921204757FCC1204057FBE1204055D
:1003AF001204B1AB071204B1750D008F0EE50E7577
:1003BF000E00F50DAF03EF420EE4AC0DAD0E1202C1
:1003CF0006E4FBFA7980783D1200FB8F0C8E0B8DC3
:1003DF000A8C09E4FFFE7D207C41AB0CAA0BA90A15
:1003EF00A8091200FBE4FBFAF9783F12000A120287
:0503FF003F8E0D8F0E82
:0104040022D5
:04032300AB07AA0674
:100327007C007D0A1202C08F997C007D64AF03AE0A
:10033700021202C08F09AE02AF037C007D64120275
:10034700C0AF05EF75F00A84FBEF75F00A84AAF0D9
:10035700C2A6E5099004CE93F580D2A6C2A6C2A78D
:100367007580FE120471C2A6AF03EF9004DE93F509
:1003770080D2A6C2A6C2A77580FD120471AF02EF94
:100387009004CE93F580D2A6C2A67580FBD2A7C2F1
:08039700A77F017E000204793A
:1004E8001204FF75086412039F1203231508E50818
:0704F800D3940050F180E9EC
:100003000202ABE86480F8E933E83360110460F07E
:10001300ED33EC337009E8FCE9FDEAFEEBFF220463
:1000230060DED3EB9FEA9EE99DE8C2E78CF0C2F75E
:1000330095F0400CE8CCF8E9CDF9EACEFAEBCFFB2A
:1000430012027685D0F05804700320D5B3E804700B
:10005300075002B2D50202B592D5EC0460F7E4CCA6
:10006300C0E0C398F8603B94186008400DD0E0FBF3
:1000730002028DE4FBFAC9FC8028E830E406E4C9F7
:10008300FBE4CAFCE830E305E4C9CACBFCE8540747
:100093006010F8C3E913F9EA13FAEB13FBEC13FC52
:1000A300D8F130F52FC3E49CFCEF9BFFEE9AFEEDF5
:1000B30099FDD0E0FBEF4E4D4C701222DB030202A0
:1000C300B2EC2CFCEF33FFEE33FEED33FDED30E706
:1000D300EB02028DEF2BFFEE3AFEED39FDD0E0FB94
:1000E30050130BBB00030202B5ED13FDEE13FEEF3D
:0800F30013FFEC13FC02028D67
:1000FB00EC4D6011E8497017ED33EC3304600DE4FF
:10010B00FCFFFEFD22E933E8330470F80202AB1268
:10011B00027658046009E4CC248150062850090269
:10012B0002B52840030202B2C0E0EB4A7044B9802A
:10013B0006D0E0FB0202A1EF4E701CBD8008EBFF66
:10014B00EAFEE9FD80EBE98DF0A4FEE5F00201E4A7
:10015B00E9CDF9EAFEEBFFEF89F0A4FCE5F0CE89DF
:10016B00F0A42EFFE435F0CD89F0A42DFEE435F09C
:10017B008067EF4E7005BD80D780C3EF8BF0A4ACCA
:10018B00F0EE8BF0A42CFCE435F0F8EF8AF0A42C05
:10019B00E5F038FCE433CB8DF0A42CFCE5F03BF818
:1001AB00EE8AF0A42CFCE5F038F8E433CF89F0A408
:1001BB002CFCE5F038CF3400CE89F0A42FFFE5F00E
:1001CB003EFEE433C98DF0A42EFEE5F039CD8AF066
:1001DB00A42FFFE5F03EFEE43DFD33D0E0FB5007DE
:1001EB000BBB000F0202B5EC2CFCEF33FFEE33FE22
:0601FB00ED33FD02028D50
:1002010075F020800E75F010800575F0087D007E78
:10021100007F003392D530D503120315EC33401023
:10022100EF33FFEE33FEED33FDEC33FCD5F0ED2281
:0E023100E5F0247EA2D513CC92E7CDCEFF22BD
:10023F00EDD2E7CD33EC3392D524814006E4FFFEB7
:10024F00FDFC22FCE4CFCECDCC24E0501174FF8016
:10025F00EDC3CC13CCCD13CDCE13CECF13CF0470B3
:07026F00F030D5DE0203159B
:10027600E9D2E7C933E833F892D5EDD2E7CD33ECCE
:0702860033FC5002B2D52247
:10028D00EC30E7100FBF000C0EBE00080DBD0004D2
:10029D000BEB6014A2D5EB13FCED92E7FD2274FF7E
:1002AD00FCFDFEFF22E480F8A2D574FF13FC7D80D7
:0302BD00E480EFEB
:0300000002050FE7
:0C050F00787FE4F6D8FD7581200204E836
:1002C000BC000BBE0029EF8DF084FFADF022E4CC22
:1002D000F875F008EF2FFFEE33FEEC33FCEE9DECEB
:1002E000984005FCEE9DFE0FD5F0E9E4CEFD22ED31
:1002F000F8F5F0EE8420D21CFEADF075F008EF2F7B
:10030000FFED33FD4007985006D5F0F222C398FD6B
:050310000FD5F0EA2208
:0E031500C3E49FFFE49EFEE49DFDE49CFC22F9
:00000001FF
